S01000004D75736963416D702E73726563F5
S1130000F4C0000015C10000F1C6000011C10000D9
S11300100FC100000DC100000BC1000009C10000A8
S113002007C1000005C1000003C1000001C10000B8
S1130030FFC00000FDC00000F5C50000F9C00000CD
S1130040F7C00000F5C00000F3C00000F1C00000DC
S1130050B2C40000EDC000007EC40000E9C000008E
S1130060E7C00000E5C00000E3C00000E1C00000FC
S1130070DFC00000DDC00000DBC00000D9C000000C
S1130080D7C00000D5C00000D3C00000D1C000001C
S1130090CFC00000CDC00000CBC00000C9C000002C
S11300A0C7C00000C5C00000C3C00000C1C000003C
S11300B0BFC00000BDC00000BBC00000B9C000004C
S11300C0B7C00000B5C00000B3C00000B1C000005C
S11300D0AFC00000ADC00000ABC00000A9C000006C
S11300E0A7C00000A5C00000A3C00000A1C000007C
S11300F09FC000009DC000009BC0000099C000008C
S113010097C0000095C000003DC5000091C00000EC
S11301108FC000008DC000008BC0000089C00000AB
S113012087C0000085C0000083C0000081C00000BB
S11301307FC00000D0C400007BC0000079C0000074
S113014077C0000075C0000073C0000094C40000B4
S11301506FC0000060C400006BC0000069C00000F4
S113016067C0000065C0000063C0000061C00000FB
S11301705FC000005DC000005BC0000059C000000B
S113018057C0000055C0000053C0000051C000001B
S11301904FC000004DC000004BC0000049C000002B
S11301A047C0000045C0000043C0000041C000003B
S11301B03FC000003DC000003BC0000039C000004B
S11301C037C0000035C0000033C0000031C000005B
S11301D02FC000002DC000002BC0000029C000006B
S11301E027C0000025C000002A0711241FBECFEF3E
S11301F0CDBFDFE5DEBF00E00CBF20E2A0E0B0E24F
S113020001C01D92A733B207E1F711E0CAEED1E0B5
S113021000E006C022970109FE010BBF0E945F099E
S1130220C83ED10780E00807A9F723D50C946309D9
S1130230E7CE23E0E0E8F6E0218302C108950F93BE
S11302401F93CF93DF93EC01042F6F83488770E0F3
S113025080E090E045D720E030E040E250E4CCD7A5
S113026011D7162F609FB0011124882777FD809540
S1130270982F36D720E030E048EC52E49BD602D7E2
S1130280462F062F212F612FCE01EED0DF91CF9183
S11302901F910F910895FC0140856781603610F429
S11302A06B5F01C064E6CBCF0895FC014085678194
S11302B0653010F0655001C060E0C1CF0895FC01C5
S11302C04085403610F44B5F01C044E6FC01678171
S11302D0B6CF0895FC014085453010F0455001C06B
S11302E040E0FC016781ABCF0895FC01878108954C
S11302F0FC018085089583E0E0E8F6E086830895B4
S113030023E0E0E8F6E02583FC014085678197CF90
S11303100895DC01ED91FC9110828DEF858388E0D6
S11303208183128281E0848308954F925F926F9259
S11303307F928F929F92AF92BF92CF92DF92EF9271
S1130340FF920F93CF93DF931F92CDB7DEB75C017B
S11303503B012A0180E88983CC24C394D12CCE01AB
S113036001967C0100E09C014AE060EDF50180818A
S1130370918165D2811153C083EC99E00197F1F723
S113038000C00000450192E0890E911C0F2EF3E09D
S1130390CF2ED12CF02D740194014AE060EDF501CB
S11303A080819181F2D181113AC0F501828190E07E
S11303B0982F88272381820F911DF30180839183D5
S11303C080EA8983CC24C394D12CCE0101967C018C
S11303D09C014AE060EDF5018081918130D2811168
S11303E01EC083EC99E00197F1F700C000000F2EC6
S11303F0F3E0CF2ED12CF02D740194014AE060ED8E
S1130400F50180819181C1D1F501228130E0322F43
S113041022279381290F311DF201208331830F900C
S1130420DF91CF910F91FF90EF90DF90CF90BF902D
S1130430AF909F908F907F906F905F904F900895B2
S1130440FC01A481B581868111968C93A281B3812C
S113045080EB11968C93A081B18181E58C930190FE
S1130460F081E02D118208950F93DC011496ED9133
S1130470FC91159716968C9116978683ED91FC91B5
S113048011970383ED91FC91119782818823ECF7F6
S11304902383ED91FC91119782818823ECF74383A8
S11304A0ED91FC91119782818823ECF76383ED91A0
S11304B0FC91119782818823ECF71496ED91FC91BD
S11304C0159716968C9185830F910895FC0160838E
S11304D00895DC018C91811109C0E8E4F0E091E019
S11304E09083889510828C918823D1F31C9208956F
S11304F0FC01A281B381848111968C93A081B18186
S113050011961C92A081B18112961C92A081B18196
S113051085E08C930190F081E02D858180FFFDCFF3
S113052080ED97E0808F918F0895CF93DF93FC0146
S1130530C081D18170E080E090E0D2D520E030E647
S113054047E455E459D620E030E048EC52E432D593
S113055099D5688F798FDF91CF910895CF93DF93E9
S1130560FC01CB01BA01C081D18120E030E647E42F
S113057055E442D620E030E048EC52E41BD582D565
S1130580688F798FDF91CF91089524E0E0E0F6E061
S11305902183ECC4089584E0E0E0F6E087830895C5
S11305A084E0E0E0F6E085838FE493EC0197F1F7D3
S11305B000C00000623098F081E094E09683AFE4DC
S11305C0B3EC1197F1F700C000009583AFE4B3ECEE
S11305D01197F1F700C000008F5F8613EFCF84E01E
S11305E0E0E0F6E086830895FC01A081B18181E01A
S11305F016968C93A081B18117968C93A081B181BA
S113060085E090E098968D939C939997A081B18111
S113061088E090E090968D939C9391970190F0815F
S1130620E02D8BE090E086A397A30895E0E6F6E042
S11306302CE022832BE1228B238BE0E8F1E02AE6F5
S113064020832FE02087DC01ED91FC91119728E0B5
S11306502083ED91FC9128E62383C6CF0895E0E240
S1130660F6E020E322832BE1248B258BE0E8F1E004
S11306702CE522832FE02287DC01ED91FC91119778
S11306802AE02083ED91FC912AE62383ADCF0895DF
S113069020E2E0E0F6E0218328E0E0E4F6E02183D4
S11306A065C4089580E2E0E0F6E08583089580E281
S11306B0E0E0F6E08683089588E0E0E4F6E08583F0
S11306C0089588E0E0E4F6E086830895E0EAF6E041
S11306D02FE12183DC018C9185830895FC016683DD
S11306E084E6489FA00111244115510509F1848134
S11306F0982F9874983411F466830AC0982F9075D3
S1130700903521F487E0838383E00895807C71F43D
S113071086E08A95F1F700C0415051094115510511
S113072031F706C087E0838382E0089580E008956E
S1130730848185FDF7CF82E00895FC01678384817D
S113074086FFFDCF848186FF06C0948192959170C7
S113075081E0892701C080E081700895FC018481D3
S11307608C708C3081F084818823ECF78781DB01E5
S11307708C93442321F087E0838381E0089582E011
S1130780838381E0089580E008956F927F928F9231
S11307909F92AF92BF92CF92DF92EF92FF920F930C
S11307A01F93CF93DF935C01862E142F622E732E3A
S11307B06E7F94DF982E811132C0C62DD72D06C0CE
S11307C06991C501BADF0150882311F00111F8CFF6
S11307D0682D6160412FC50181DF982E81111CC0F5
S11307E087010C0D1D1D0DC0E701219641E0C114C8
S11307F0D10409F040E0B701C501B0DF882341F01E
S11308007E0181E0C81AD108E016F10669F704C038
S11308100F2EF5E09F2EF02D87E0F5018383892DBF
S1130820DF91CF911F910F91FF90EF90DF90CF90C8
S1130830BF90AF909F908F907F906F9008958F920C
S11308409F92AF92BF92CF92DF92EF92FF920F935B
S11308501F93CF93DF935C01822E932E6E7F3EDF36
S1130860182F81111EC0C82DD92D06C06991C5014C
S113087064DF0150882349F00111F8CF07C0699162
S1130880C5015BDF811105C008C015E0E701CE0C8E
S1130890DF1CCC15DD0599F701C015E087E0F501F3
S11308A08383812FDF91CF911F910F91FF90EF9060
S11308B0DF90CF90BF90AF909F908F90089529CDF7
S11308C00895CF92DF92EF92FF92CF93DF93EB01E3
S11308D040E050E262E070E228DD811134C06091B2
S11308E000207091012080E090E0F8D320E030E017
S11308F040E052E481D420E030E040E05FE37CD487
S113090020E030E04AE754E455D36B017C01609168
S113091002207091032080E090E0E0D320E030E0FA
S113092040E450E469D420E030E04AE754E442D3A0
S11309309B01AC01C701B6015FD4688379838A83C4
S11309409B8381E001C080E0DF91CF91FF90EF9025
S1130950DF90CF9008951F920F920FB60F9211243B
S11309600BB60F922F933F934F935F936F937F93A5
S11309708F939F93AF93BF93EF93FF9388E090E09F
S1130980E0E4F8E080A391A364E087E290E29EDDD6
S1130990FF91EF91BF91AF919F918F917F916F9153
S11309A05F914F913F912F910F900BBE0F900FBE0F
S11309B00F901F9018951F920F920FB60F9211244B
S11309C00BB60F922F933F934F935F936F937F9345
S11309D08F939F93AF93BF93EF93FF9363E087E26B
S11309E090E274DD88E090E0E0E4F8E080A391A375
S11309F0FF91EF91BF91AF919F918F917F916F91F3
S1130A005F914F913F912F910F900BBE0F900FBEAE
S1130A100F901F9018951F920F920FB60F921124EA
S1130A200BB60F922F933F934F935F936F937F93E4
S1130A308F939F93AF93BF93EF93FF9388E090E0DE
S1130A40E0E4F9E080A391A366E087E290E23EDD72
S1130A50FF91EF91BF91AF919F918F917F916F9192
S1130A605F914F913F912F910F900BBE0F900FBE4E
S1130A700F901F9018951F920F920FB60F9211248A
S1130A800BB60F922F933F934F935F936F937F9384
S1130A908F939F93AF93BF93EF93FF9388E090E07E
S1130AA0E0E4F9E080A391A365E087E290E20EDD43
S1130AB0FF91EF91BF91AF919F918F917F916F9132
S1130AC05F914F913F912F910F900BBE0F900FBEEE
S1130AD00F901F9018951F920F920FB60F9211242A
S1130AE00BB60F922F933F934F935F936F937F9324
S1130AF08F939F93AF93BF93EF93FF93809128209D
S1130B0090912920009759F0019780932820909381
S1130B102920892B21F460E187E290E2D7DC8091DF
S1130B200D20811112C068E070E28EE090E2C9DE0F
S1130B30882359F0409108205091092060910A209F
S1130B4070910B2082E290E209DDFF91EF91BF9159
S1130B50AF919F918F917F916F915F914F913F9151
S1130B602F910F900BBE0F900FBE0F901F901895F2
S1130B7082E390E20DD28DE190E20AD28EE290E21D
S1130B80E0C108951F920F920FB60F9211240BB675
S1130B900F922F933F934F935F936F937F938F9312
S1130BA09F93AF93BF93EF93FF93E2DF82E390E2CF
S1130BB0F2DC64E070E28EE090E283DE882359F098
S1130BC040910420509105206091062070910720E7
S1130BD082E290E2C3DCFF91EF91BF91AF919F91CC
S1130BE08F917F916F915F914F913F912F910F90D2
S1130BF00BBE0F900FBE0F901F90189582E390E2EA
S1130C00CCD1882371F08DE190E2C7D1882349F0DB
S1130C108EE290E29CD182E390E29ED18DE190E25B
S1130C209BC108951F920F920FB60F9211240BB619
S1130C300F922F933F934F935F936F937F938F9371
S1130C409F93AF93BF93EF93FF93D8DFFF91EF91FF
S1130C50BF91AF919F918F917F916F915F914F91D0
S1130C603F912F910F900BBE0F900FBE0F901F90CE
S1130C701895CF93DF9300D01F92CDB7DEB780E4F1
S1130C8098E08B839C8380E499E089839A8382E350
S1130C9090E27BDC8EE290E245D18AE290E242D19E
S1130CA08DE190E2F5DCCE010396C0DCCE01019625
S1130CB0D6DC82E290E21CDC8CE190E207DD83E189
S1130CC090E2B7DA8EE090E2FADD83E0E0EAF0E069
S1130CD0828378948AE290E234D10F2EFCE0CF2E06
S1130CE0D12CF02DEE24E39487E290E2F2DB182F6E
S1130CF0833089F4C0922820D0922920E0920D20DC
S1130D0083E190E2D2DA83E190E2EFDA682F82E2C3
S1130D1090E20BDC26C0843089F4C0922820D09263
S1130D202920E0920D2083E190E2B5DA83E190E29C
S1130D30DCDA682F82E290E2F8DB26C0853089F4A1
S1130D40C0922820D0922920E0920D2083E190E2E5
S1130D50C1DA83E190E2CCDA682F82E290E2E5DB4B
S1130D60C3CF163089F4C0922820D0922920E09273
S1130D700D2083E190E2A3DA83E190E2B9DA682FEF
S1130D8082E290E2D2DBB0CF103109F0ADCF109205
S1130D9028201092292010920D20A6CF8DE190E2F8
S1130DA08BDC8FE493EC0197F1F700C000008DE138
S1130DB090E278DC8FE493EC0197F1F700C0000037
S1130DC083E190E29DDA61E082E390E2E9CB089569
S1130DD083E190E290DA8DE190E273DC8DE190E2C0
S1130DE066DC62E082E390E2DBCB08951F920F920F
S1130DF00FB60F9211240BB60F922F933F934F937C
S1130E005F936F937F938F939F93AF93BF93EF936E
S1130E10FF93AEDE80910C20882311F0D9DF01C04E
S1130E20BDDF90910C2081E0892780930C20FF91F5
S1130E30EF91BF91AF919F918F917F916F915F914E
S1130E404F913F912F910F900BBE0F900FBE0F90BB
S1130E501F90189580E096E0809332209093332081
S1130E6028E02093342083E196E08093352090930A
S1130E70362080E098E080932E2090932F2088E500
S1130E8092E0809330209093312080E099E0809329
S1130E902A2090932B2084EF91E080932C20909330
S1130EA02D201092272080E293E0809322209093BB
S1130EB0232080E296E0809324209093252034E040
S1130EC03093262080E496E080931D2090931E208A
S1130ED030931F2082E596E0809320209093212078
S1130EE081E080931C2080EC9AE0809313209093FF
S1130EF0142080E896E08093152090931620809328
S1130F001720909318202093192081E280931A20AF
S1130F108CE380931B2080E894E080930E209093D0
S1130F200F200895FC01A081B1818281938196965E
S1130F308D939C9397970190F081E02D82E08683B6
S1130F400895DC01ED91FC9187E080830895DC0134
S1130F50ED91FC9110820895DC01ED91FC911197C3
S1130F6021E02187ED91FC9124870895FC01A08163
S1130F70B181828112968C93A381B4818AE18C938E
S1130F80A081B18182811A968C93CF01E5CF089517
S1130F90DC01ED91FC9111860895DC01ED91FC9149
S1130FA01197208512968C91922F982381E009F451
S1130FB080E008950CD0E6C0DED040F0D5D030F00B
S1130FC021F45F3F19F0C7C0511110C1CAC0EBD062
S1130FD098F39923C9F35523B1F3951B550BBB27FC
S1130FE0AA2762177307840738F09F5F5F4F220FA9
S1130FF0331F441FAA1FA9F333D00E2E3AF0E0E8A2
S113100030D091505040E695001CCAF729D0FE2FED
S113101027D0660F771F881FBB1F2617370748077F
S1131020AB07B0E809F0BB0B802DBF01FF27935835
S11310305F4F2AF09E3F510568F08DC0D7C05F3FD7
S1131040ECF3983EDCF3869577956795B795F7951D
S11310509F5FC9F7880F911D9695879597F9089515
S1131060E1E0660F771F881FBB1F621773078407B1
S1131070BA0720F0621B730B840BBA0BEE1F88F7C0
S1131080E095089598D088F09F5790F0B92F99274C
S1131090B751A0F0D1F0660F771F881F991F1AF07F
S11310A0BA95C9F712C0B13081F09FD0B1E008956C
S11310B09CC0672F782F8827B85F39F0B93FCCF3ED
S11310C0869577956795B395D9F73EF49095809575
S11310D0709561957F4F8F4F9F4F0895E89409C095
S11310E097FB3EF490958095709561957F4F8F4F57
S11310F09F4F9923A9F0F92F96E9BB279395F6956D
S1131100879577956795B795F111F8CFFAF4BB0FEA
S113111011F460FF1BC06F5F7F4F8F4F9F4F16C04E
S1131120882311F096E911C0772321F09EE8872FD8
S1131130762F05C0662371F096E8862F70E060E094
S11311402AF09A95660F771F881FDAF7880F96950D
S1131150879597F9089597F99F6780E870E060E0B4
S113116008959FEF80EC089500240A94161617063C
S113117018060906089500240A9412161306140684
S113118005060895092E0394000C11F4882352F0E7
S1131190BB0F40F4BF2B11F460FF04C06F5F7F4F9F
S11311A08F4F9F4F089557FD9058440F551F59F086
S11311B05F3F71F04795880F97FB991F61F09F3F40
S11311C079F087950895121613061406551FF2CF69
S11311D04695F1DF08C0161617061806991FF1CFB9
S11311E086957105610508940895E894BB276627E0
S11311F07727CB0197F908950BD0C4CFB5DF28F03A
S1131200BADF18F0952309F0A6CFABCF1124EECFA7
S1131210CADFA0F3959FD1F3950F50E0551F629F4D
S1131220F001729FBB27F00DB11D639FAA27F00D3B
S1131230B11DAA1F649F6627B00DA11D661F829F62
S11312402227B00DA11D621F739FB00DA11D621F47
S1131250839FA00D611D221F749F3327A00D611D64
S1131260231F849F600D211D822F762F6A2F112446
S11312709F5750408AF0E1F088234AF0EE0FFF1F99
S1131280BB1F661F771F881F91505040A9F79E3FD0
S1131290510570F060CFAACF5F3FECF3983EDCF3CA
S11312A0869577956795B795F795E7959F5FC1F70D
S11312B0FE2B880F911D9695879597F908950790B1
S10D12C0F691E02D1994F894FFCF85
S9030000FC
