S01000004D75736963416D702E73726563F5
S1130000F4C0000015C10000F1C6000011C10000D9
S11300100FC100000DC100000BC1000009C10000A8
S113002007C1000005C1000003C1000001C10000B8
S1130030FFC00000FDC00000EBC50000F9C00000D7
S1130040F7C00000F5C00000F3C00000F1C00000DC
S1130050A7C40000EDC0000073C40000E9C00000A4
S1130060E7C00000E5C00000E3C00000E1C00000FC
S1130070DFC00000DDC00000DBC00000D9C000000C
S1130080D7C00000D5C00000D3C00000D1C000001C
S1130090CFC00000CDC00000CBC00000C9C000002C
S11300A0C7C00000C5C00000C3C00000C1C000003C
S11300B0BFC00000BDC00000BBC00000B9C000004C
S11300C0B7C00000B5C00000B3C00000B1C000005C
S11300D0AFC00000ADC00000ABC00000A9C000006C
S11300E0A7C00000A5C00000A3C00000A1C000007C
S11300F09FC000009DC000009BC0000099C000008C
S113010097C0000095C0000032C5000091C00000F7
S11301108FC000008DC000008BC0000089C00000AB
S113012087C0000085C0000083C0000081C00000BB
S11301307FC00000C5C400007BC0000079C000007F
S113014077C0000075C0000073C0000089C40000BF
S11301506FC0000055C400006BC0000069C00000FF
S113016067C0000065C0000063C0000061C00000FB
S11301705FC000005DC000005BC0000059C000000B
S113018057C0000055C0000053C0000051C000001B
S11301904FC000004DC000004BC0000049C000002B
S11301A047C0000045C0000043C0000041C000003B
S11301B03FC000003DC000003BC0000039C000004B
S11301C037C0000035C0000033C0000031C000005B
S11301D02FC000002DC000002BC0000029C000006B
S11301E027C0000025C000002A0711241FBECFEF3E
S11301F0CDBFDFE5DEBF00E00CBF20E2A0E0B0E24F
S113020001C01D92A733B207E1F710E0C5EFD0E0BB
S113021000E006C021970109802FFE010E944C09CD
S1130220C43FD10780E00807A9F719D50C945409F5
S1130230E7CE23E02093810603C10895EF92FF9255
S11302400F93CF93DF937C01C42FFC016783408716
S113025070E080E090E031D720E030E040E250E40C
S1130260B8D7FDD6D62F6C9FB0011124072E000CF1
S1130270880B990B22D720E030E048EC52E487D673
S1130280EED6462F062F2D2F6D2FC701EDD0DF910F
S1130290CF910F91FF90EF900895FC014085678105
S11302A0603610F46B5F01C064E6C8CF0895FC01AA
S11302B040856781653010F0655001C060E0BECFB5
S11302C00895FC014085403610F44B5F01C044E6BC
S11302D0FC016781B3CF0895FC014085453010F0DF
S11302E0455001C040E0FC016781A8CF0895FC019E
S11302F087810895FC018085089583E080938606B4
S1130300089523E020938506FC014085678196CFFC
S11303100895DC01ED91FC9110828DEF858388E0D6
S11303208183128281E0848308954F925F926F9259
S11303307F928F929F92AF92BF92CF92DF92EF9271
S1130340FF920F93CF93DF931F92CDB7DEB75C017B
S11303504B013A0180E88983CC24C394D12CCE018B
S113036001967C0100E09C014AE060EDF50180818A
S1130370918159D2811153C083EC99E00197F1F72F
S113038000C00000250192E0490E511C0F2EF3E03D
S1130390CF2ED12CF02D720192014AE060EDF501CF
S11303A080819181E2D181113AC0F501828190E08E
S11303B0982F88272381820F911DF40180839183D4
S11303C080EA8983CC24C394D12CCE0101967C018C
S11303D09C014AE060EDF5018081918124D2811174
S11303E01EC083EC99E00197F1F700C000000F2EC6
S11303F0F3E0CF2ED12CF02D720192014AE060ED92
S1130400F50180819181B1D1F501228130E0322F53
S113041022279381290F311DF301208331830F900B
S1130420DF91CF910F91FF90EF90DF90CF90BF902D
S1130430AF909F908F907F906F905F904F900895B2
S1130440FC01A481B581868111968C93A281B3812C
S113045080EB11968C93A081B18181E58C930190FE
S1130460F081E02D118208950F93DC011496ED9133
S1130470FC91159716968C9116978683ED91FC91B5
S113048011970383ED91FC91119792819923ECF7D5
S11304902383ED91FC91119792819923ECF7438387
S11304A0ED91FC91119792819923ECF76383ED917F
S11304B0FC91119792819923ECF71496ED91FC919C
S11304C0159716968C9185830F910895FC0160838E
S11304D00895DC018C91811109C0E8E4F0E091E019
S11304E09083889510828C918823D1F31C9208956F
S11304F0FC01A281B381848111968C93A081B18186
S113050011961C92A081B18112961C92A081B18196
S113051085E08C930190F081E02D858180FFFDCFF3
S1130520108E118E0895CF93DF93FC01C081D18189
S113053070E080E090E0C1D520E030E647E455E487
S113054048D620E030E048EC52E421D588D5688FC5
S1130550798FDF91CF910895CF93DF93FC01CB0185
S1130560BA01C081D18120E030E647E455E431D6B8
S113057020E030E048EC52E40AD571D5688F798FD9
S1130580DF91CF91089524E020930106DCC40895FF
S113059084E0809305068FE493EC0197F1F700C0A3
S11305A000006230A8F081E0E0E0F6E094E0968399
S11305B0AFE4B3EC1197F1F700C000009583AFE40A
S11305C0B3EC1197F1F700C000008F5F6813EFCF11
S11305D084E0809306060895FC01A081B18181E046
S11305E016968C93A081B18117968C93A081B181CA
S11305F085E090E098968D939C939997A081B18122
S113060088E090E090968D939C9391970190F0816F
S1130610E02D8BE090E086A397A30895E0E6F6E052
S11306202CE022832BE1228B238BE0E8F1E02AE605
S113063020832FE02087DC01ED91FC91119728E0C5
S11306402083ED91FC9128E62383C6CF0895E0E250
S1130650F6E020E322832BE1248B258BE0E8F1E014
S11306602CE522832FE02287DC01ED91FC91119788
S11306702AE02083ED91FC912AE62383ADCF0895EF
S113068020E22093010628E0209341065CC40895EB
S113069080E280930506089580E28093060608951B
S11306A088E080934506089588E08093460608957F
S11306B0E0EAF6E02FE12183DC018C918583089543
S11306C0FC01668384E6489FA0011124411551056D
S11306D0F9F09481292F2874283411F466830AC010
S11306E0892F8075803521F487E0838383E0089522
S11306F0907C61F486E08A95F1F700C0415051097D
S113070041F706C087E0838382E0089580E008957E
S1130710848185FDF7CF82E00895FC01678394818D
S113072096FFFDCF848186FF06C084818295817007
S113073091E0892701C080E081700895FC018481E3
S11307408C708C3081F094819923ECF78781DB01E4
S11307508C93442321F087E0838381E0089582E031
S1130760838381E0089580E008955F926F927F9281
S11307708F929F92AF92BF92CF92DF92EF92FF92AD
S11307800F931F93CF93DF935C01962E842E390130
S11307906E7F96DF582E811135C0E301C301800FAF
S11307A0911D8C0105C06991C501B7DF882319F03B
S11307B0C017D107C1F7692D6160482DC50180DFDD
S11307C0582E81111CC087010C0D1D1D0DC0E701A1
S11307D0219641E0C114D10409F040E0B701C501FC
S11307E0ADDF882341F07E0191E0C91AD108E016FB
S11307F0F10669F704C00F2EF5E05F2EF02D87E0B7
S1130800F5018383852DDF91CF911F910F91FF9087
S1130810EF90DF90CF90BF90AF909F908F907F909C
S11308206F905F9008958F929F92AF92BF92CF92F4
S1130830DF92EF92FF920F931F93CF93DF935C01AC
S1130840E9016E7F3DDF182F811120C04E01C00FDA
S1130850D11D07C0F40161914F01C5015EDF8823FA
S113086059F08C169D06B1F708C06991C50155DF92
S1130870811106C015E007C015E0E701CE0CDF1CAE
S1130880CC16DD0691F787E0F5018383812FDF9194
S1130890CF911F910F91FF90EF90DF90CF90BF9079
S11308A0AF909F908F90089534CD0895CF92DF92AA
S11308B0EF92FF92CF93DF93EB0140E050E262E0CE
S11308C070E233DD811134C0609100207091012009
S11308D080E090E0F0D320E030E040E052E479D4CE
S11308E020E030E040E05FE374D420E030E04AE709
S11308F054E44DD36B017C0160910220709103207C
S113090080E090E0D8D320E030E040E450E461D4CB
S113091020E030E04AE754E43AD39B01AC01C7013C
S1130920B60157D4688379838A839B8381E001C0AD
S113093080E0DF91CF91FF90EF90DF90CF9008950A
S11309401F920F920FB60F9211240BB60F922F9392
S11309503F934F935F936F937F938F939F93AF9343
S1130960BF93EF93FF9388E090E0809360089093A7
S1130970610864E087E290E2A9DDFF91EF91BF9105
S1130980AF919F918F917F916F915F914F913F9123
S11309902F910F900BBE0F900FBE0F901F901895C4
S11309A01F920F920FB60F9211240BB60F922F9332
S11309B03F934F935F936F937F938F939F93AF93E3
S11309C0BF93EF93FF9363E087E290E27FDD88E0DB
S11309D090E08093600890936108FF91EF91BF913C
S11309E0AF919F918F917F916F915F914F913F91C3
S11309F02F910F900BBE0F900FBE0F901F90189564
S1130A001F920F920FB60F9211240BB60F922F93D1
S1130A103F934F935F936F937F938F939F93AF9382
S1130A20BF93EF93FF9388E090E0809360099093E5
S1130A30610966E087E290E249DDFF91EF91BF91A1
S1130A40AF919F918F917F916F915F914F913F9162
S1130A502F910F900BBE0F900FBE0F901F90189503
S1130A601F920F920FB60F9211240BB60F922F9371
S1130A703F934F935F936F937F938F939F93AF9322
S1130A80BF93EF93FF9388E090E080936009909385
S1130A90610965E087E290E219DDFF91EF91BF9172
S1130AA0AF919F918F917F916F915F914F913F9102
S1130AB02F910F900BBE0F900FBE0F901F901895A3
S1130AC01F920F920FB60F9211240BB60F922F9311
S1130AD03F934F935F936F937F938F939F93AF93C2
S1130AE0BF93EF93FF938091282090912920009742
S1130AF059F001978093282090932920892B21F481
S1130B0060E187E290E2E2DC80910D20811112C065
S1130B1068E070E28EE090E2C9DE882359F04091EB
S1130B2008205091092060910A2070910B2082E2E4
S1130B3090E212DDFF91EF91BF91AF919F918F9160
S1130B407F916F915F914F913F912F910F900BBEC9
S1130B500F900FBE0F901F90189582E390E205D27C
S1130B608DE190E202D28EE290E2D7C108951F9205
S1130B700F920FB60F9211240BB60F922F933F933F
S1130B804F935F936F937F938F939F93AF93BF9391
S1130B90EF93FF93E2DF62E082E390E2F9DC64E04A
S1130BA070E28EE090E282DE882359F040910420C6
S1130BB050910520609106207091072082E290E216
S1130BC0CBDCFF91EF91BF91AF919F918F917F917A
S1130BD06F915F914F913F912F910F900BBE0F90AA
S1130BE00FBE0F901F90189582E390E2C3D1882323
S1130BF071F08DE190E2BED1882349F08EE290E25B
S1130C0092D182E390E294D18DE190E291C1089572
S1130C101F920F920FB60F9211240BB60F922F93BF
S1130C203F934F935F936F937F938F939F93AF9370
S1130C30BF93EF93FF93D8DFFF91EF91BF91AF91F3
S1130C409F918F917F916F915F914F913F912F91E0
S1130C500F900BBE0F900FBE0F901F901895CF935F
S1130C60DF9300D01F92CDB7DEB780E498E089838C
S1130C709A8380E499E08B839C8382E390E283DC13
S1130C808EE290E23BD18AE290E238D18DE190E2AB
S1130C90F7DCCE010196C2DCCE010396D8DC82E2F9
S1130CA090E226DC8CE190E203DD83E190E2C1DA9C
S1130CB08EE090E2F9DD83E08093A20078948AE2EA
S1130CC090E22BD10F2EFCE0EF2EF12CF02D01E061
S1130CD087E290E2FEDB182F833089F4E09228202B
S1130CE0F092292000930D2083E190E2E0DA83E181
S1130CF090E2FDDA682F82E290E215DC26C08430AF
S1130D0089F4E0922820F092292000930D2083E1B9
S1130D1090E2C3DA83E190E2EADA682F82E290E2B9
S1130D2002DC26C0853089F4E0922820F092292044
S1130D3000930D2083E190E2CFDA83E190E2DADAE6
S1130D40682F82E290E2EFDBC3CF163089F4E092A1
S1130D502820F092292000930D2083E190E2B1DA5B
S1130D6083E190E2C7DA682F82E290E2DCDBB0CF65
S1130D70103109F0ADCF1092282010922920109242
S1130D800D20A6CF8DE190E28BDC8FE493EC0197EC
S1130D90F1F700C000008DE190E27ADC8FE493EC7F
S1130DA00197F1F700C0000083E190E2AADA63E062
S1130DB082E390E2EDCB089583E190E29EDA8FE442
S1130DC093EC0197F1F700C000008DE190E264DC40
S1130DD08FE493EC0197F1F700C000008DE190E2FD
S1130DE063DC62E082E390E2D3CB08951F920F921A
S1130DF00FB60F9211240BB60F922F933F934F937C
S1130E005F936F937F938F939F93AF93BF93EF936E
S1130E10FF93A3DE80910C20882311F0CDDF01C065
S1130E20B1DF90910C2081E0892780930C20FF9101
S1130E30EF91BF91AF919F918F917F916F915F914E
S1130E404F913F912F910F900BBE0F900FBE0F90BB
S1130E501F901895E2E3F0E280E096E080839183AE
S1130E6088E0828323E136E023833483EEE2F0E2F8
S1130E7020E038E02083318328E532E02283338385
S1130E80EAE2F0E220E039E02083318324EF31E02C
S1130E902283338310922720E2E2F0E220E233E05F
S1130EA02083318320E236E02283338394E09483E9
S1130EB0EDE1F0E220E436E020833183928322E501
S1130EC036E02383348391E090931C20E3E1F0E245
S1130ED020EC3AE02083318320E836E02283338318
S1130EE024833583868381E287838CE3808780E84B
S1130EF094E080930E2090930F200895FC01A0812C
S1130F00B1818281938196968D939C93979701905A
S1130F10F081E02D82E086830895DC01ED91FC915F
S1130F2087E080830895DC01ED91FC91108208959F
S1130F30FC01A081B18191E019969C930190F0810C
S1130F40E02D94870895FC01A081B18182811296DD
S1130F508C93A381B4818BE18C93A081B181828134
S1130F601A968C93CF01E4CF0895DC01ED91FC91A6
S1130F7011860895DC01ED91FC911197208512965C
S1130F808C91922F982381E009F480E008950CD08D
S1130F90E6C0DED040F0D5D030F021F45F3F19F048
S1130FA0C7C0511110C1CAC0EBD098F39923C9F33B
S1130FB05523B1F3951B550BBB27AA27621773075B
S1130FC0840738F09F5F5F4F220F331F441FAA1F0F
S1130FD0A9F333D00E2E3AF0E0E830D091505040CF
S1130FE0E695001CCAF729D0FE2F27D0660F771F7D
S1130FF0881FBB1F261737074807AB07B0E809F05F
S1131000BB0B802DBF01FF2793585F4F2AF09E3FF3
S1131010510568F08DC0D7C05F3FECF3983EDCF318
S1131020869577956795B795F7959F5FC9F7880F6C
S1131030911D9695879597F90895E1E0660F771FBE
S1131040881FBB1F621773078407BA0720F0621B4F
S1131050730B840BBA0BEE1F88F7E095089598D0B4
S113106088F09F5790F0B92F9927B751A0F0D1F08D
S1131070660F771F881F991F1AF0BA95C9F712C017
S1131080B13081F09FD0B1E008959CC0672F782FD4
S11310908827B85F39F0B93FCCF386957795679583
S11310A0B395D9F73EF490958095709561957F4FEF
S11310B08F4F9F4F0895E89409C097FB3EF4909595
S11310C08095709561957F4F8F4F9F4F9923A9F01D
S11310D0F92F96E9BB279395F695879577956795AC
S11310E0B795F111F8CFFAF4BB0F11F460FF1BC0F0
S11310F06F5F7F4F8F4F9F4F16C0882311F096E983
S113110011C0772321F09EE8872F762F05C0662330
S113111071F096E8862F70E060E02AF09A95660FE9
S1131120771F881FDAF7880F9695879597F90895A2
S113113097F99F6780E870E060E008959FEF80EC86
S1131140089500240A941616170618060906089529
S113115000240A9412161306140605060895092E8F
S11311600394000C11F4882352F0BB0F40F4BF2BFE
S113117011F460FF04C06F5F7F4F8F4F9F4F08953E
S113118057FD9058440F551F59F05F3F71F0479534
S1131190880F97FB991F61F09F3F79F08795089519
S11311A0121613061406551FF2CF4695F1DF08C038
S11311B0161617061806991FF1CF86957105610555
S11311C008940895E894BB2766277727CB0197F9FD
S11311D008950BD0C4CFB5DF28F0BADF18F09523FB
S11311E009F0A6CFABCF1124EECFCADFA0F3959FB1
S11311F0D1F3950F50E0551F629FF001729FBB27FA
S1131200F00DB11D639FAA27F00DB11DAA1F649FA5
S11312106627B00DA11D661F829F2227B00DA11D58
S1131220621F739FB00DA11D621F839FA00D611DDE
S1131230221F749F3327A00D611D231F849F600DFF
S1131240211D822F762F6A2F11249F5750408AF038
S1131250E1F088234AF0EE0FFF1FBB1F661F771FC4
S1131260881F91505040A9F79E3F510570F060CF00
S1131270AACF5F3FECF3983EDCF3869577956795AC
S1131280B795F795E7959F5FC1F7FE2B880F911DE2
S11312909695879597F90895EE0FFF1F881F8BBFCA
S10F12A00790F691E02D1994F894FFCF0C
S9030000FC
